:020000040800F2
:10000000100700209D010008A11C0008F31B000838
:100010009D1C0008F10200080D29000800000000E6
:100020000000000000000000000000007120000837
:10003000F502000800000000DD1C00087320000825
:10004000B7010008B7010008B7010008B7010008B0
:10005000B7010008B7010008B7010008B7010008A0
:10006000B7010008B7010008B7010008B701000890
:10007000B7010008B7010008B7010008B701000880
:10008000B7010008B7010008B7010008B701000870
:10009000B7010008B7010008B7010008B701000860
:1000A000B7010008B7010008B7010008B701000850
:1000B000B7010008B7010008B7010008B701000840
:1000C000B7010008B7010008B7010008B701000830
:1000D000B7010008B7010008B1280008B7010008FF
:1000E000B7010008B7010008B7010008B701000810
:1000F000B7010008B7010008B7010008B701000800
:10010000B7010008B7010008B7010008B7010008EF
:10011000B7010008B7010008B7010008B7010008DF
:10012000B7010008B7010008B7010008B7010008CF
:10013000B7010008B7010008B7010008B7010008BF
:10014000B7010008B7010008B7010008B7010008AF
:10015000B7010008B7010008B7010008B70100089F
:10016000B7010008B7010008B7010008B70100088F
:10017000B7010008B7010008B7010008000000003F
:10018000B7010008B7010008DFF80CD000F09EF8B6
:10019000004800479D2B00081007002006488047B4
:1001A00006480047FEE7FEE7FEE7FEE7FEE7FEE75C
:1001B000FEE7FEE7FEE7FEE72921000889010008C7
:1001C0002DE9F05F0546002092469B46884606468C
:1001D000814640241BE0284641464746224600F01F
:1001E00064F853465A46C01A914110D31146184636
:1001F000224600F04BF82D1A67EB01084F462246C5
:100200000120002100F042F817EB00094E41201EAA
:10021000A4F10104DFDC484631462A464346BDE8E6
:10022000F09FD2B201E000F8012B491EFBD27047CB
:100230000022F6E710B513460A4604461946FFF7B2
:10024000F0FF204610BD30B504460020034600E014
:100250005B1C934203D2E05CCD5C401BF8D030BD08
:1002600030B50B46014600202022012409E021FA86
:1002700002F59D4205D303FA02F5491B04FA02F583
:100280002844151EA2F10102F1DC30BD202A04DB56
:10029000203A00FA02F1002070479140C2F1200399
:1002A00020FA03F3194390407047202A04DB203AD8
:1002B00021FA02F00021704721FA02F3D040C2F186
:1002C000200291400843194670470000064C074D34
:1002D00006E0E06840F0010394E807009847103416
:1002E000AC42F6D3FFF754FF4C3000086C300008E6
:1002F00000BFFEE7704700001849087F012801D0C1
:10030000032811D100BF1649096841F40061144A5D
:1003100011601146096821F40061116000BF1146A7
:10032000096841F400711160022801D0032811D13D
:1003300000BF0B49096841F48051094A1160114618
:10034000096821F48051116000BF1146096841F429
:10035000806111600021014A117770471000002070
:100360000020024000F0010129B10B49496941F028
:100370000401094A516100F0020129B106494969A5
:1003800041F40041044A51610349496941F4803113
:10039000014A5161704700000020024001F0010253
:1003A00032B10F4A526922F400620D4B5A6105E0E6
:1003B0000B4A526942F40062094B5A61084A526979
:1003C00060F3CA02064B5A611A46526942F00202B1
:1003D0005A611A46526942F480325A6170470000ED
:1003E0000020024010B50449496941F00101024C66
:1003F00061610260436010BD0020024070B5402280
:1004000004460B46084D6D6945F48025064E75611E
:1004100072B600BF1D682560241D1B1D551EEAB263
:10042000002AF7D162B670BD0020024070B50546C3
:1004300000F064FA064608E0681C30B100F05EFA8D
:10044000801BA84201D3032070BD1C480069C0F383
:1004500000400028F0D1194800694CF2FA3100EA56
:1004600001041648806900F000400443CCB11448F0
:10047000406820431249486000BF04F0404030B15A
:100480000E48806904F0404108430C49886124F01B
:10049000404018B124F040400849086100BF0120E5
:1004A000D2E70648006900F0010020B100BF01203A
:1004B0000249086100BF0020C6E70000002002409A
:1004C000100000202DE9F04104460F4600BF3F48D0
:1004D0000078012802D10220BDE8F08101203B49CB
:1004E000087000BF4CF25030FFF7A0FF0646002E08
:1004F00064D1364948603648006800F40070B8B1ED
:100500003348006820F400703149086008460068EC
:1005100000F4806040B10846006820F48060086004
:1005200003202A49087715E001202849087711E0BF
:100530002748006800F4806048B12548006820F42E
:1005400080602349086002202049087702E00020EB
:100550001E490877206801280FD16068FFF702FF65
:100560004CF25030FFF762FF06461948406948F2E6
:1005700004018843164948611EE04FF0FF3038609F
:10058000A56813E028466168FFF708FF4CF2503079
:10059000FFF74CFF06460E48406940F2FA71884367
:1005A0000B4948610EB13D6005E06D1CD4E90201C4
:1005B0000844A842E6D800BFFFF79EFE00BF002017
:1005C0000249087000BF304686E700001000002096
:1005D000002002400348406940F000400149486162
:1005E00000207047002002402DE9F047044688466D
:1005F00015461E464FF0000900BF29480078012823
:1006000002D10220BDE8F08701202549087000BF13
:100610004CF25030FFF70AFF0746002F38D120492F
:1006200048602048006800F4806048B11D480068B8
:1006300020F480601B49086002201949087702E015
:100640000020174908773CB92A4633464046FFF751
:10065000C9FE4FF001090BE0012C01D0022C07D19B
:1006600029464046FFF7CAFE022C01D14FF48029EB
:100670004CF25030FFF7DAFE0746B9F1000F05D013
:100680000848406920EA090006494861FFF734FE3E
:1006900000BF00200249087000BF3846B2E70000E2
:1006A000100000200020024000200849496901F0A4
:1006B000004151B10649054A9160064991601146D1
:1006C000496901F0004101B101207047002002405A
:1006D00023016745AB89EFCD78B50346002200249E
:1006E0000020E5E0012696400D6805EA0604002C8E
:1006F0007DD04D68022D02D04D68122D13D1D60841
:1007000003F1200555F826005507EE0E0F25B540DC
:10071000A8435607F60E0D69B5402843D60803F1E5
:10072000200545F82600186856000325B540A84363
:100730000D7905F003055600B540284318604D6853
:10074000012D08D04D68022D05D04D68112D02D025
:100750004D68122D13D1986856000325B540A84363
:100760005600CD68B54028439860586801259540EB
:10077000A8430D79C5F300159540284358600D79BD
:1007800005F00305032D09D1D86A01259540A8433A
:100790000D79C5F3C00595402843D862D868560046
:1007A0000325B540A84356008D68B5402843D8605E
:1007B0004D6805F08055B5F1805F78D100BF3F4DA1
:1007C0002D6E45F001053D4E356635462D6E05F022
:1007D0000105009500BF00BF4FEAB635960855F8F1
:1007E000260095072E0F0F25B540A84300E05EE0D8
:1007F000B3F1904F01D100251EE0314DAB4201D144
:10080000012519E02F4DAB4201D1022514E02E4DF8
:10081000AB4201D103250FE02C4DAB4201D10425A1
:100820000AE02B4DAB4201D1052505E0294DAB4235
:1008300001D1062500E007259607360FB54028436D
:10084000254D960845F82600244D2868A0434D689C
:1008500005F48035B5F5803F00D120431F4D286059
:100860002D1D2868A0434D6805F40035B5F5003FFF
:1008700000D12043194D2D1D28602D1D2868A0434F
:100880004D6805F48015B5F5801F00D12043134D48
:10089000083528602D1D2868A0434D6805F4001513
:1008A000B5F5001F00D120430C4D0C352860521CBB
:1008B0000D68D540002D7FF415AF78BD00100240C3
:1008C0000004004800080048000C004800100048E0
:1008D00000140048001800480800014000040140CE
:1008E000024613690B400BB1012000E00020704765
:1008F0000AB1816100E08162704700000148006830
:10090000704700000C00002002480068401C0149AC
:10091000086070470C00002010B5032000F0B0F80C
:10092000002000F005F800F017F8002010BD0000CE
:1009300070B50446074800684FF47A71B0FBF1F5D2
:10094000284600F0F4FF00222146501E00F059F81E
:10095000002070BD3000002008B500BF2148006EA7
:1009600040F001001F4908660846006E00F00100D3
:10097000009000BF00BF00BF0846806D40F080506F
:1009800088650846806D00F08050009000BF00BF71
:10099000032000F075F8002211466FF00B0000F004
:1009A00030F8002211466FF00A0000F02AF8002209
:1009B00011466FF0090000F024F800221146501F84
:1009C00000F01FF800221146101F00F01AF8002254
:1009D0001146901E00F015F800221146501E00F03E
:1009E00010F808BD0010024000BF00F01F020121F6
:1009F00091404209920002F1E022C2F8001100BFCA
:100A000070472DE9F05F80460D461646002701F03D
:100A100049F9074639462A46334601F00700C0F136
:100A2000070ABAF1040F02D94FF0040A01E0C0F13D
:100A3000070AD14600F1040ABAF1070F02D24FF0BB
:100A4000000A01E0A0F1030AD4464FF0010A0AFAB5
:100A500009FAAAF1010A0AEA020A0AFA0CFA4FF0A4
:100A6000010B0BFA0CFBABF1010B0BEA030B4AEA8F
:100A70000B042146404601F01DF9BDE8F09F00003F
:100A800000BF00F00702064B19684FF6FF0319403C
:100A9000044B0B4343EA0221014B196000BF70472E
:100AA0000CED00E00000FA0502460021B2F5007FDF
:100AB00029D11D48006800F4C060B0F5007F31D036
:100AC0001948006820F4C06040F40070164B1860AC
:100AD00016480068164BB0FBF3F0322300FB03F11D
:100AE00000E0491E31B11048406900F48060B0F563
:100AF000806FF6D00C48406900F48060B0F5806FDC
:100B000010D1032070470848006800F4C060B0F5B9
:100B1000806F07D00448006820F4C06040F4806013
:100B2000014B18600020EDE700700040300000200D
:100B300040420F000248006800F4C06070470000A7
:100B4000007000402DE9F8430446002600270025E8
:100B5000A846208800F40060B0F5006F30D1606EC8
:100B600080B1B0F5800F13D0B0F5000F03D0B0F511
:100B7000400F15D113E0FA48C06840F48030F849BE
:100B8000C8600FE00021201D01F0AAF8054609E029
:100B9000002104F1200001F069F9054602E001E0BE
:100BA000012500BF00BF55B9ED488830006820F42A
:100BB0004000616E0843EA49C1F8880000E0A84699
:100BC000208800F48050B0F5805F30D1A06E80B1F5
:100BD000B0F1807F13D0B0F1007F03D0B0F1407F3F
:100BE00015D113E0DE48C06840F48030DC49C860AD
:100BF0000FE00021201D01F073F8054609E00021F7
:100C000004F1200001F032F9054602E001E001257F
:100C100000BF00BF55B9D2488830006820F040704E
:100C2000A16E0843CE49C1F8880000E0A8462068BC
:100C300000F40030B0F5003F76D14FF00009C8480D
:100C4000806D00F0805078B900BFC548806D40F0DD
:100C50008050C34988650846806D00F08050009040
:100C600000BF00BF4FF00109BE48006840F480702B
:100C7000BC490860FFF742FE074606E0FFF73EFE6C
:100C8000C01B022801D9032505E0B648006800F41E
:100C900080700028F2D000BF85BBB148903000685A
:100CA00000F44076D6B1D4F88400B04216D0AC48F7
:100CB0009030006820F44076A948D0F8900040F4C5
:100CC0008030A749C1F890000846D0F8900020F481
:100CD0008030C1F890000846C0F8906006F001002E
:100CE000A8B1FFF70BFE074609E0FFF707FEC01BA0
:100CF00041F28831884202D9032507E017E098487D
:100D00009030006800F002000028EED000BF65B906
:100D100093489030006820F44070D4F88410084361
:100D20008F49C1F8900003E00CE0A84600E0A84617
:100D3000B9F1010F05D18A48806D20F080508849B3
:100D4000886500BF207800F0010048B184488830F1
:100D5000006820F00300A16B08438149C1F88800B6
:100D6000207800F00200022809D17D488830006810
:100D700020F00C00E16B08437949C1F88800207825
:100D800000F00400042809D175488830006820F07C
:100D90003000216C08437249C1F88800207800F0C7
:100DA0000800082809D16E488830006820F0C0008B
:100DB000616C08436A49C1F88800207800F010008F
:100DC000102809D166488830006820F44070A16C72
:100DD00008436349C1F88800207800F020002028EB
:100DE00009D15F488830006820F44060E16C084316
:100DF0005B49C1F88800208800F40070B0F5007FDE
:100E000009D157488830006820F44020E16D08433C
:100E10005349C1F88800208800F48060B0F5806FE5
:100E200009D14F488830006820F44010216E0843F3
:100E30004B49C1F88800207800F04000402809D1D3
:100E400047488830006820F44050216D08434449E9
:100E5000C1F88800207800F08000802809D140483F
:100E60008830006820F44040616D08433C49C1F877
:100E70008800208800F48070B0F5807F09D1384860
:100E80008830006820F44030A16D08433449C1F82F
:100E90008800208800F40050B0F5005F1FD1304872
:100EA0008830006820F04060E16E08432C498831AA
:100EB0000860E06EB0F1006F06D12948C06840F4C8
:100EC00080102749C8600AE0E06EB0F1806F06D15B
:100ED0000121201D00F004FF054605B1A846206849
:100EE00000F40020B0F5002F1FD11D4888300068A5
:100EF00020F04060216F0843194988310860206F55
:100F0000B0F1006F06D11648C06840F48010144953
:100F1000C8600AE0206FB0F1806F06D10121201D6A
:100F200000F0DEFE054605B1A846206800F48020EA
:100F3000B0F5802F23D10A488830006820F0406047
:100F4000616F0843064988310860606FB0F1006F37
:100F50000AD10348C06840F480100149C8600EE01F
:100F60000010024000700040606FB0F1806F06D149
:100F70000121201D00F0B4FE054605B1A8462088D9
:100F800000F48040B0F5804F1FD12248006820F067
:100F90004050A16F08431F490860A06FB0F1805F07
:100FA00007D10221201D00F09BFE05466DB1A84629
:100FB0000BE0A06FB0F1005F07D1022104F1200027
:100FC00000F054FF054605B1A846208800F4004013
:100FD000B0F5004F09D10F48006820F08040E16F64
:100FE00008430C498839C1F88800206800F4803033
:100FF000B0F5803F0AD10748006820F00040D4F8DF
:101000008010084303498839C1F888004046BDE88C
:10101000F88300008810024070B504460D460CB9F4
:10102000012070BD5348006800F00700A8420ED2AE
:101030005048006820F0070028434E4908600846E1
:10104000006800F00700A84201D00120E9E72078FD
:1010500000F00100002840D06068032806D146480F
:10106000006800F00070D8B90120DAE76068022853
:1010700006D14148006800F4003088B90120D0E76B
:10108000606830B93C48006800F0020040B90120B7
:10109000C7E73948006800F4806008B90120C0E75C
:1010A0003548806820F00300616808433249886051
:1010B000FFF724FC064608E0FFF720FC801B41F206
:1010C0008831884201D90320ABE72B48806800F0C3
:1010D0000C006168B0EB810FEED1207800F00200C7
:1010E000022807D12448806820F0F000A168084356
:1010F000214988601F48006800F00700A8420ED907
:101100001C48006820F0070028431A490860084678
:10111000006800F00700A84201D0012081E7207894
:1011200000F00400042807D11348806820F4E06030
:10113000E168084310498860207800F0080008281A
:1011400008D10D48806820F46050216940EAC10050
:101150000949886000F03CF807498968C1F3031128
:10116000064A515CC840064908600020FFF7E0FBD2
:10117000002056E700200240001002400430000822
:101180003000002001480068704700003000002057
:1011900000B5FFF7F7FF04498968C1F30221034A4C
:1011A000515CC84000BD000000100240143000082F
:1011B00000B5FFF7E7FF04498968C1F3C221034A7C
:1011C000515CC84000BD000000100240143000080F
:1011D000F0B50021002300240225022200203B4E0E
:1011E000B66806F00C065EB1384EB66806F00C061E
:1011F0000C2E1ED1354EF66806F00306012E18D1CE
:10120000324E366806F008062EB9304E94363668EF
:10121000C6F3032103E02D4E3668C6F303112C4EAE
:1012200056F82110294EB66806F00C0686B9084615
:101230000EE0264EB66806F00C06042E01D12548B5
:1012400006E0224EB66806F00C06082E00D12248B1
:101250001E4EB66806F00C060C2E36D11B4EF668F4
:1012600006F00304194EF668C6F30216721C012C30
:1012700019D0022C02D0032C14D109E0154EB6FB74
:10128000F2F6124FFF68C7F3062706FB07F313E0D9
:10129000114EB6FBF2F60D4FFF68C7F3062706FBAB
:1012A00007F309E000BFB1FBF2F6084FFF68C7F390
:1012B000062706FB07F300BF00BF044EF668C6F31F
:1012C0004166761C7500B3FBF5F0F0BD00100240DE
:1012D0001C3000080024F40000127A00F8B504461F
:1012E0000CB90120F8BD207800F0100010286ED154
:1012F000F848806800F00C00002869D1F5480068C3
:1013000000F0020018B1A06908B90120EAE7F1482D
:10131000216A006800F0080020B1EE48006800F083
:10132000F00005E0EB489430006800F470600009BC
:1013300081421FD9206A00F04BFE08B10120D1E79D
:1013400000BFE448006840F00800E2490860084631
:10135000006820F0F000216A0843DE49086000BF01
:101360000846406820F47F40E16940EA0120D949FD
:1013700048601EE000BFD748006840F00800D5492B
:1013800008600846006820F0F000216A0843D1494F
:10139000086000BF0846406820F47F40E16940EAE9
:1013A0000120CC494860206A00F012FE08B10120FB
:1013B00098E7FFF70DFFC7498968C1F30311C64AD3
:1013C000515CC840C54908600020FFF7B1FA4AE007
:1013D000A06980B3BF48006840F00100BD490860C3
:1013E000FFF78CFA054606E0FFF788FA401B022853
:1013F00001D9032076E7B748006800F00200002812
:10140000F2D000BFB348006840F00800B14908605E
:101410000846006820F0F000216A0843AD490860E2
:1014200000BF0846406820F47F40E16940EA01209F
:10143000A849486017E0FFE7A648006820F00100CF
:10144000A4490860FFF75AFA054606E0FFF756FA86
:10145000401B022801D9032044E79E48006800F0A1
:1014600002000028F2D1207800F00100002868D0A6
:101470009848806800F00C0008280BD095488068D8
:1014800000F00C000C280ED19248C06800F0030058
:10149000032808D18F48006800F4003088B36068E2
:1014A00078BB01201EE700BF6068B0F5803F06D121
:1014B0008848006840F48030864908601AE0606817
:1014C000B0F5A02F0BD18348006840F480208149FB
:1014D00008600846006840F4803008600AE07D48F3
:1014E000006820F480307B4908600846006820F4DA
:1014F0008020086000BF606890B1FFF7FFF90546E3
:1015000007E01EE0FFF7FAF9401B642801D9032029
:10151000E8E67048006800F400300028F2D010E0DF
:10152000FFF7ECF9054606E0FFF7E8F9401B6428F1
:1015300001D90320D6E66748006800F4003000288F
:10154000F2D1207800F0020002285ED16148806864
:1015500000F00C0004280BD05E48806800F00C00FE
:101560000C2818D15B48C06800F00300022812D193
:101570005848006800F4806018B1E06808B901209C
:10158000B0E65448406820F0F850217C40EA016001
:101590005049486039E0E06800B34E48006840F4C4
:1015A00080704C490860FFF7A9F9054606E0FFF78F
:1015B000A5F9401B022801D9032093E6454800689D
:1015C00000F480600028F2D04248406820F0F850D3
:1015D000217C40EA01603F49486016E03D480068D0
:1015E00020F480703B490860FFF788F9054606E063
:1015F000FFF784F9401B022801D9032072E6354821
:10160000006800F480600028F2D1207800F0080023
:10161000082836D16069D0B12E489430006840F077
:1016200001002C49C1F89400FFF768F9054606E06F
:10163000FFF764F9401B022801D9032052E6254830
:101640009430006800F002000028F1D019E0214831
:101650009430006820F001001E49C1F89400FFF7A3
:101660004DF9054606E0FFF749F9401B022801D96C
:10167000032037E617489430006800F00200002885
:10168000F1D1207800F0040004286ED10026114822
:10169000806D00F0805070B900BF0E48806D40F042
:1016A00080500C4988650846806D00F0805000909D
:1016B00000BF00BF01260A48006800F48070F0B93E
:1016C0000748006840F4807005490860FFF716F984
:1016D00005460EE0001002400430000830000020F3
:1016E00000700040FFF70AF9401B022801D90320CF
:1016F000F8E58148006800F480700028F2D000BF4F
:10170000A068012808D17D48006840F001007B49AD
:101710009039C1F8900021E0A06805280FD17748E2
:10172000006840F0040075499039C1F890000846FF
:10173000D0F8900040F00100C1F890000EE06F4832
:10174000006820F001006D499039C1F8900008460A
:10175000D0F8900020F00400C1F8900000BFA0680D
:10176000A0B1FFF7CBF8054609E02DE0FFF7C6F87A
:10177000401B41F28831884201D90320B2E55F481D
:10178000006800F002000028F0D012E0FFF7B6F881
:10179000054608E0FFF7B2F8401B41F28831884265
:1017A00001D903209EE55548006800F0020000289A
:1017B000F0D1012E07D151489038806D20F0805033
:1017C0004E499039886500BFA06AE8B34B4890380D
:1017D000806800F00C000C2879D0A06A022853D150
:1017E00046489038006820F080704449903908607D
:1017F000FFF784F8054606E0FFF780F8401B022853
:1018000001D903206EE53D489038006800F0007073
:101810000028F1D1206B401E0101606B41EA0021DC
:10182000A06B000941EA4040E16A0843A18F012210
:10183000C2EB510140EA41514020005DC2EB500033
:1018400041EA40602D4900E053E09039C860084605
:10185000006840F0807008600846C06840F0807002
:10186000C860FFF74BF8054606E0FFF747F8401B56
:10187000022801D9032035E520489038006800F09F
:1018800000700028F1D034E01C489038006820F047
:1018900080701A49903908600846006800F00060BE
:1018A00048B90846006800F0005020B90846C068F2
:1018B00020F00300C86011489038C0681049084003
:1018C0000E499039C860FFF719F8054607E00EE0A9
:1018D000FFF714F8401B022801D9032002E507484E
:1018E0009038006800F000700028F1D101E001207C
:1018F000F8E40020F6E40000007000409010024080
:10190000FFFFEEFE042808D14FF0E021096941F005
:1019100004014FF0E022116107E04FF0E021096976
:1019200021F004014FF0E02211617047704770B55B
:1019300004462546681EB0F1807F01D301200FE0E8
:10194000681E4FF0E02148610F214FF0FF3000F09A
:10195000B1F900204FF0E0218861072008610020E4
:1019600070BD10B5FFF7E2FF10BD10B504460CB90D
:10197000012010BDA06900B100E000BF94F8710023
:1019800028B9002084F87000204600F02BF82420AD
:1019900084F871002068006820F001002168086068
:1019A000204600F009FD012800D1E2E7606A10B18D
:1019B000204600F0E1FB2068406820F49040216858
:1019C00048602068806820F02A00216888602068CC
:1019D000006840F0010021680860204600F048FCE3
:1019E000C7E7000010B586B0044615492068884254
:1019F00024D100BF1348806D40F400301149886540
:101A00000846806D00F40030009000BF00BF0C203D
:101A100001900220029000200390032004900720F0
:101A2000059001A94FF09040FEF756FE00221146A6
:101A30002620FEF7E6FF2620FEF7D6FF06B010BDF3
:101A4000004400400010024010B5034693F87200B5
:101A5000202862D101B10AB9012010BD00BF93F85E
:101A60007000012801D10220F7E7012083F87000FF
:101A700000BF5965A3F85820A3F85A200020186623
:101A800000BF9868B0F5805F0AD1186920B940F2AC
:101A9000FF10A3F85C001CE0FF20A3F85C0018E036
:101AA000986848B9186918B9FF20A3F85C0010E0DD
:101AB0007F20A3F85C000CE09868B0F1805F08D14B
:101AC000186918B97F20A3F85C0002E03F20A3F852
:101AD0005C0000BF00205867222083F8720018685D
:101AE000806840F001001C68A0609868B0F5805FD5
:101AF00004D1186910B90A48186601E00948186647
:101B000000BF002083F8700000BF1868006840F430
:101B100090701C68206000209FE702209DE7000075
:101B2000E52200085123000870472DE9F8430446D8
:101B30000D4616461F464FF0000994F87100202804
:101B400055D105B116B90120BDE8F88300BF94F85E
:101B50007000012801D10220F6E7012084F870000E
:101B600000BF00206067212084F87100FEF7C6FEE8
:101B70008146A4F85060A4F8526021E04B46002250
:101B800080212046009700F05DFE08B10320DBE7CE
:101B9000A068B0F5805F0AD1206940B9A846B8F8BE
:101BA0000000C0F3080021680885AD1C03E015F8AB
:101BB000010B21680885B4F85200401EA4F85200B9
:101BC000B4F852000028D9D14B46002240212046CB
:101BD000009700F037FE08B10320B5E7202084F815
:101BE000710000BF002084F8700000BFACE7022045
:101BF000AAE700BFFEE7000000B587B000BF1048AD
:101C0000C06C40F001000E49C8640846C06C00F08A
:101C10000100019000BF00BF012220214FF0904041
:101C2000FEF766FE2020029001200390022004901F
:101C3000059002A94FF09040FEF74EFD07B000BDA1
:101C40000010024010B50F480F4908604FF41650BD
:101C5000486000210C488160C16001610C21416134
:101C600000218161C1610162002007494862084684
:101C7000FFF77BFE20B140F2251104A000F048FEE2
:101C800010BD000000440040340000202E2E2F53D1
:101C900072632F6D61696E2E6300000000BFFEE766
:101CA0007047000002480068C0F30220704700003F
:101CB0000CED00E010B5002807DA0A07140E054AFB
:101CC00000F00F031B1FD45403E00A07130E024A4F
:101CD000135410BD18ED00E000E400E07047000070
:101CE0002DE9F04104460E46002700255B48C068F8
:101CF00000F0030090B15948C06800F0030021686B
:101D0000884209D1206838B15448C068C0F3021035
:101D1000401C6168884233D0012531E020680128E9
:101D200004D0022809D003281AD10DE04B480068DE
:101D300000F0020000B9012514E04848006800F4F2
:101D4000806000B901250DE04448006800F40030CF
:101D500028B94248006800F4802000B9012501E05C
:101D6000012500BF00BF5DB9D4E90010401E41EA63
:101D700000103A49C96821F0730108433749C86027
:101D8000002D68D13548006820F080603349086034
:101D9000FEF7B4FD074606E0FEF7B0FDC01B0228C3
:101DA00001D9032505E02D48006800F000600028F7
:101DB000F2D100BFCDBB6EB9A0680002E16809098D
:101DC00040EA414025490969254A11400843234911
:101DD000086120E0012E0FD1A0680002218A0122B3
:101DE000C2EB510140EA41501C4909691D4A1140AA
:101DF00008431A4908610EE0A0680002217D012213
:101E0000C2EB510140EA416014490969164A114088
:101E10000843124908611148006840F080600F498A
:101E20000860FEF76BFD074607E014E0FEF766FD6D
:101E3000C01B022801D9032505E00848006800F00E
:101E400000600028F2D000BF2DB904480069A169E4
:101E50000843024908612846BDE8F08100100240AD
:101E6000FF80FDFFFF809FFFFF80FFF92DE9F0411C
:101E700004460E46002700255248C06800F00300C3
:101E800090B15048C06800F003002168884209D131
:101E9000206838B14B48C068C0F30210401C61682C
:101EA000884233D0012531E02068012804D002287F
:101EB00009D003281AD10DE04248006800F0020062
:101EC00000B9012514E03F48006800F4806000B9C3
:101ED00001250DE03B48006800F4003028B939487E
:101EE000006800F4802000B9012501E0012500BF51
:101EF00000BF5DB9D4E90010401E41EA001031492D
:101F0000C96821F0730108432E49C860002D55D1DE
:101F10002C48006820F080502A490860FEF7EEFC4B
:101F2000074606E0FEF7EAFCC01B022801D903259C
:101F300005E02448006800F000500028F2D100BFFE
:101F4000E5BB6EB9A0680002E168090940EA4140BA
:101F50001C4949691C4A114008431A4948610EE06E
:101F6000A0680002217C0122C2EB510140EA4160DD
:101F700014494969154A11400843124948611148FA
:101F8000006840F080500F490860FEF7B7FC074634
:101F900006E0FEF7B3FCC01B022801D9032505E0CB
:101FA0000848006800F000500028F2D000BF2DB9AA
:101FB0000448406961690843024948612846BDE810
:101FC000F081000000100240FF80FDFFFF80FFF95C
:101FD000F8B50446002600252348806D00F08050A7
:101FE00018B1FEF7A7FD064616E000BF1E48806D3B
:101FF00040F080501C4988650846806D00F0805094
:10200000009000BF00BFFEF795FD06461648806DA4
:1020100020F0805014498865B6F5007F07D1802CE8
:1020200010D9A02C01D902250CE001250AE0802C52
:1020300001D9032506E0802C01D1022502E0702C95
:1020400000D101250948006820F00700284307490E
:1020500008600846006800F00700A84201D001208F
:10206000F8BD0020FCE70000001002400020024004
:10207000704710B5FEF748FCFFF773FC10BD000079
:1020800010B5B8B002202790C0012A9010202B90E4
:102090000020319027A8FFF721F918B1EA211EA0EE
:1020A00000F036FC0F202290012023900020249085
:1020B00025902690002122A8FEF7AEFF18B1F82146
:1020C00015A000F025FC0220009000200F9068462B
:1020D000FEF738FD18B1FF210FA000F019FC4FF4F6
:1020E0000070FEF7E1FC20B14FF483710AA000F00C
:1020F0000FFCFFF747F84FF47A71B0FBF1F420467C
:10210000FFF715FC0420FFF7FDFB00221146501ECF
:10211000FEF777FC38B010BD2E2E2F5372632F6D53
:1021200061696E2E630000001048006840F4700082
:102130000E4908600E48006840F001000C49086034
:1021400000208860084600680A490840084908607D
:102150008814C8600846006820F4802008600020C9
:102160008861C803014980390860704788ED00E044
:1021700000100240FFFFF6EA90F8241001F0010180
:1021800039B10168496821F40031826A114302685B
:10219000516090F8241001F00201022907D1016872
:1021A000496821F48031C26A11430268516090F895
:1021B000241001F00401042907D10168496821F4C1
:1021C0008021026B11430268516090F8241001F0E5
:1021D0000801082907D10168496821F40041426BD0
:1021E00011430268516090F8241001F01001102989
:1021F00007D10168896821F48051826B114302681C
:10220000916090F8241001F02001202907D1016885
:10221000896821F40051C26B11430268916090F803
:10222000241001F04001402913D10168496821F4CC
:102230008011026C114302685160016CB1F5801F7E
:1022400007D10168496821F4C001426C114302685A
:10225000516090F8241001F08001802907D10168B5
:10226000496821F40021826C114302685160704773
:1022700038B50446002500206067FEF73FFB0546A1
:102280002068006800F0080008280CD16FF07E403C
:102290002B4600224FF400110090204600F0D2FAA5
:1022A00008B1032038BD2068006800F0040004284D
:1022B0000CD16FF07E402B4600224FF4800100903D
:1022C000204600F0BFFA08B10320EBE7202084F895
:1022D000710084F8720000BF002084F8700000BF15
:1022E00000BFDFE72DE9F0410446B4F85C7094F8D4
:1022F0007200222824D12068868C656D06EA0700CA
:102300002880606D801C6065B4F85A00401E80B261
:10231000A4F85A00D0B92068006820F490702168B1
:1023200008602068806820F0010021688860202013
:1023300084F87200002020662046FFF7F5FB05E0D8
:102340002068008B40F0080021680883BDE8F08118
:1023500070B50446B4F85C6094F87200222823D16A
:102360002068858CF0B22840626D511C6165107048
:10237000B4F85A00401E80B2A4F85A00D0B92068C0
:10238000006820F49070216808602068806820F060
:10239000010021688860202084F8720000202066F7
:1023A0002046FFF7C1FB05E02068008B40F00800E5
:1023B0002168088370BD00002DE9F84F04464FF0F6
:1023C000000910264FF0000B0025002000908246E7
:1023D000F7492068884200D100E000BF2169A06869
:1023E000084361690843E16940EA0109206800681F
:1023F000F049084040EA0900216808602068406808
:1024000020F44050E168084321684860D4F81890EF
:10241000E7492068884202D0206A40EA090920681A
:10242000806820F4306040EA09002168886000BFBD
:10243000E1492068884216D1E048006800F00300B6
:1024400030B1012808D0022804D0032808D105E0C3
:10245000012607E0022605E0042603E0082601E045
:10246000102600BF8CE0D6492068884216D1D34898
:10247000006800F00C0030B1042808D0082804D00F
:102480000C2808D105E0002607E0022605E0042616
:1024900003E0082601E0102600BF71E0C94920686A
:1024A000884216D1C548006800F0300030B11028CD
:1024B00008D0202804D0302808D105E0002607E005
:1024C000022605E0042603E0082601E0102600BFEE
:1024D00056E0BD492068884216D1B848006800F02F
:1024E000C00030B1402808D0802804D0C02808D1CE
:1024F00005E0002607E0022605E0042603E00826A2
:1025000001E0102600BF3BE0B0492068884219D1A5
:10251000AA48006800F4407048B1B0F5807F0AD046
:10252000B0F5007F05D0B0F5407F08D105E000266A
:1025300007E0022605E0042603E0082601E0102655
:1025400000BF1DE09A492068884219D19B48006865
:1025500000F4406048B1B0F5806F0AD0B0F5006F6C
:1025600005D0B0F5406F08D105E0002607E002264F
:1025700005E0042603E0082601E0102600BF00BFA6
:1025800000BF8B492068884272D1042E10D003DC32
:102590003EB1022E13D108E0082E0DD0102E0ED120
:1025A0000EE0FEF7F5FD82460DE0DFF824A20AE01A
:1025B000FEF70EFE824606E04FF4004A03E000BF3D
:1025C0000120009000BF00BFBAF1000F0AD0606880
:1025D00000EB4000504503D860680003504502D22C
:1025E0000120009025E1042E2ED003DC3EB1022E06
:1025F00051D118E0082E3CD0102E4CD14CE0FEF703
:10260000C7FD4FF48071A0FB0131606840081F18BE
:1026100041F10001D4F804C0624600233846FDF7BA
:10262000CFFD05463BE0D4F804C04FEA5C00002132
:10263000684BC71841EB010862460B4638464146D5
:10264000FDF7BEFD05462AE0FEF7C2FD4FF480719E
:10265000A0FB0130616849085F1840F10001D4F81F
:1026600004C0624600233846FDF7AAFD054616E081
:1026700022E0D4F804C04FEA5C0000214FF40003CC
:10268000C71841EB010862460B4638464146FDF744
:1026900097FD054603E000BF0120009000BF00BF8A
:1026A000B5F5407F05D3B5F5801F02D22068C5601F
:1026B000BFE001200090BCE0E069B0F5004F57D1C9
:1026C000042E28D005DC4EB1012E11D0022E36D1B9
:1026D00018E0082E29D0102E31D131E0FEF758FD38
:1026E0004000616800EB5100B0FBF1F085B22AE0D8
:1026F000FEF75EFD4000616800EB5100B0FBF1F0B9
:1027000085B220E03449606801EB50006168B0FB9D
:10271000F1F085B217E0FEF75BFD4000616800EB69
:102720005100B0FBF1F085B20DE04FF480316068EC
:1027300001EB50006168B0FBF1F085B203E000BF2F
:102740000120009000BF00BF102D0ED3B5F5803FD3
:102750000BD24FF6F07005EA000BC5F342004BEACE
:10276000000B2068C0F80CB063E00120009060E02E
:10277000042E3CD005DC4EB1012E10D0022E49D1E2
:102780002CE0082E3CD0102E44D144E0FEF700FD92
:10279000616800EB5100B0FBF1F085B23EE0FEF75E
:1027A00007FD616800EB5100B0FBF1F085B235E048
:1027B00000800040F369FFEF0038014088100240BC
:1027C0000044004000480040004C004000500040E1
:1027D0000024F400000024F40048E801184960686F
:1027E00001EB50006168B0FBF1F085B216E0FEF736
:1027F000EFFC616800EB5100B0FBF1F085B20DE039
:102800004FF40041606801EB50006168B0FBF1F0EB
:1028100085B203E000BF0120009000BF00BF102D73
:1028200005D3B5F5803F02D22068C56001E00120E4
:1028300000900020206660660098BDE8F88F0000D8
:102840000024F4002DE9F04104460D461746984651
:10285000069E21E0701CF8B12EB1FEF74FF8A0EBF8
:102860000800B04218D92068006820F4D0702168B0
:1028700008602068806820F00100216888602020BE
:1028800084F8710084F8720000BF002084F87000A2
:1028900000BF0320BDE8F0812068C0692840A8423D
:1028A00001D1012000E00020B842D3D00020F1E7A0
:1028B00010B51449096801F0200010B3114A08321C
:1028C0001288D1B2104AB2F80032B2F8022202F5F0
:1028D000007292B293420DD00B4AB2F80032B2F8B5
:1028E0000022521C084CA4F80022C3F3080223461D
:1028F000995405E00022044BA3F80022A3F8022219
:1029000000BF10BD1C440040CC00002000BFFEE70B
:1029100000BFFEE70FB4084B10B504A902AA039844
:1029200000F01CF8044602A9002000F0C1F820467F
:1029300010BC5DF814FB0000B12A000802E008C8D2
:10294000121F08C1002AFAD170477047002001E029
:1029500001C1121F002AFBD1704700002DE9FF4F73
:1029600089B09B460446002506E025280BD05A4630
:102970000B999047641C6D1C20780028F5D10DB090
:102980002846BDE8F08F0027B8460122474900E0FD
:10299000074314F8013F203B02FA03F00842F7D145
:1029A00020782E2819D114F8010F47F004072A289F
:1029B0000ED06FF02F022078A0F1300109290CD839
:1029C00008EB880102EB410100EB0108641CF2E70F
:1029D0000A98641C50F8048B0A9020780028CED006
:1029E000642808D0692806D075281ED05A460B994D
:1029F00090476D1C58E00A994FF00A0901C90A91E5
:102A0000002802DA40422D2102E0390504D52B21AD
:102A10008DF82010012103E0F90704D02021F7E709
:102A20008A4608AE0DE00021FAE70A994FF00A093C
:102A300001C90A91F7E74946FDF712FC303106F863
:102A4000011D0028F7D1ADEB060000F12009780741
:102A500001D44FF00108C84502DDA8EB090000E0F1
:102A600000208046002706E008A85A46C05D0B9962
:102A700090476D1C7F1C5745F6DB04E030205A461A
:102A80000B9990476D1CB8F10001A8F10108F5DC25
:102A900005E016F8010B5A460B9990476D1CB9F1E9
:102AA0000001A9F10109F4DC641C65E709280100B3
:102AB0000A68531C0B60107070472DE9F04186B016
:102AC00006460F46002440F2FF1500200590804680
:102AD000FDF7EAFDA6F10060C40A04EBD725FF2C40
:102AE0000FD8FF2D0DD801200290681C001B049008
:102AF00003940020019005A901A8FDF7E3FC80469E
:102B000032E0B4F5807F10D9B5F5807F0DD9022071
:102B10000290281B401C049003940020019005A9FA
:102B200001A8FDF7CFFC80461EE001200290C4F111
:102B3000FF00049003940020019005A901A8FDF76F
:102B4000C1FC8046B8F1000F0ED102200290A5F121
:102B5000FF0004904FF4807003900020019005A9BD
:102B600001A8FDF7AFFC8046FDF734FDB8F1000F7A
:102B700003D0012006B0BDE8F0810020FAE7000094
:102B800010B5FDF791FD00BF48F2910002490861C0
:102B900000BFFDF71FFD10BD002002401CB5FDF772
:102BA000BBFEFFF76DFAFFF727F8FFF74BF84FF47E
:102BB0007A72B3A1B448FEF747FF0025FFF7E0FFA4
:102BC0005DE102226946B14800F0D8F90098C0F1F1
:102BD000FF30AF4908600198C0F1FF30AD4908608F
:102BE000AD48B0F80202AC49B1F800128842E7D013
:102BF000AA48007810B101287ED112E0A648B0F8AA
:102C00000212B0F80202401CA34AA2F80202C1F369
:102C100008001146085C242802D101209F49087051
:102C20002CE19D48B0F80212B0F80202401C9A4A0A
:102C3000A2F80202C1F3080011460C5C3B2C04D040
:102C400097484455681CC5B216E1022295A19448E4
:102C5000FDF7F9FA00283FD120214FF09040FDF711
:102C60003FFE48BB012220214FF09040FDF740FE7F
:102C70004FF47A7306228CA18348FEF756FF002595
:102C800020218748FDF7D4FA002084490870804845
:102C90000068401C7E49086008460068C0F1FF30AB
:102CA00000904FF480717948FFF707FF02226946D0
:102CB000764800F06FF9DFE04FF47A7309227CA1C7
:102CC0007148FEF732FF002520217548FDF7B0FA64
:102CD000002072490870CFE0032278A17048FDF708
:102CE000B2FA002842D120214FF09040FDF7F8FDC4
:102CF00001282BD1002200E0BFE020214FF09040BE
:102D0000FDF7F6FD4FF47A7307226DA15E48FEF7DA
:102D10000CFF002520216248FDF78AFA00205F4958
:102D200008705C480068401C5A4908600846006802
:102D3000C0F1FF3001904FF480715448FFF7BDFEA1
:102D400002226946514800F025F995E04FF47A7364
:102D50000A225DA14C48FEF7E8FE002520215048DC
:102D6000FDF766FA00204D49087085E0052259A15B
:102D70004B48FDF768FA78B94FF47A73252257A1CA
:102D80004148FEF7D2FE002520214548FDF750FAC4
:102D90000020424908706FE00D225AA14048FDF71B
:102DA00052FA00283ED1002520213D48FDF740FA87
:102DB00000203A490870364856A102685648FFF785
:102DC000A9FD344853A102685448FFF7A3FD4FF40E
:102DD0007A730A2252A12C48FEF7A7FE4FF47A73A9
:102DE00020224D492848FEF7A0FE4FF47A730222B4
:102DF0004EA12548FEF799FE4FF47A730B224CA1A1
:102E00002148FEF792FE4FF47A73202243491E4870
:102E1000FEF78BFE4FF47A73022244A11A48FEF7A4
:102E200084FE29E0142245A11D48FDF70CFAA0B943
:102E3000002520211A48FDF7FBF9002017490870EA
:102E40004FF480711148FFF738FE4FF47A73152262
:102E50003FA10D48FEF769FE0EE04FF47A7312228F
:102E600041A10948FEF761FE002520210C48FDF72D
:102E7000DFF900200949087000E000BF00BFA0E6AC
:102E800068616861000000003400002000F8040858
:102E90000400002008000020CC00002000000020DA
:102EA000AC0000204F4E00004F4E204C4544000027
:102EB0004C4544204953204F4E0000004F464600E9
:102EC0004C4544204F4646004C4544204953204F32
:102ED0004646000048454C4C4F00000048454C4CCD
:102EE0004F2C20434F4E4E454354454420574954A0
:102EF00048204D43552053544D33324C34373652CD
:102F0000470000004E554D424552204F4E204F463F
:102F10004600000025640000D0020020F0020020DE
:102F20004E756D626572204F4E3A00000D0A00002A
:102F30004E756D626572204F46463A00434C4541DE
:102F400052204E554D424552204F4E204F4646008E
:102F5000434C4541524544204E554D424552204F29
:102F60004E204F4646000000434F4D4D414E4420F9
:102F70004E4F5420444546494E45000010B503E0ED
:102F800003680B60091D001D1300A2F10102F7D1B7
:102F900010BD00002DE9F04704460E4691464FF063
:102FA000000A0025FDF780FB00BF1CE006EBC50012
:102FB000D0E900733A4621460020FDF715FB70B9B1
:102FC00006EBC502D4E90010D2E900325940504066
:102FD000014302D04FF0020A0BE0083402E04FF048
:102FE000030A06E06D1CB5EB590F02D20448844277
:102FF000DCD900BFFDF7EEFA5046BDE8F0870000CF
:10300000F8F70708000000000000000001020304B8
:10301000060708090000000001020304A086010061
:10302000400D0300801A060000350C0040420F00DE
:1030300080841E0000093D0000127A000024F40084
:1030400000366E010048E801006CDC026C300008BC
:1030500000000020340000003C290008A0300008D7
:1030600034000020DC0600004C29000800000000AD
:103070000000000000000000000000000000000050
:10308000000000000000000000000000010000003F
:1030900000000000000000000000000000093D00EA
:040000050800018965
:00000001FF
